:020000020000FC
:040000000C943A0022
:040044000C945601C1
:10005C000C9430000FB6539510914600ADB7BEB757
:10006C0013962C910FBE1895112444275527F894FC
:10007C0001E00093F62000E00093440001E00093BF
:10008C0045001092460001E000936E0078940091B8
:10009C00460043955330D8F3F89410926E001092AA
:1000AC0045000091460000304D3700C0EF93109290
:1000BC00000210920102109202021092030210929E
:1000CC000402109205021092060210920702EFEF42
:1000DC0007FDE093000206FDE093010205FDE093AD
:1000EC00020204FDE093030203FDE093040202FD0F
:1000FC00E093050201FDE093060200FDE093070288
:10010C00E7E0E0930802EF91EF931092F002109267
:10011C00F1021092F2021092F3021092F402109279
:10012C00F5021092F6021092F702EFEF17FDE09332
:10013C00F00216FDE093F10215FDE093F20214FDBE
:10014C00E093F30213FDE093F40212FDE093F50249
:10015C0011FDE093F60210FDE093F702E7E0E09367
:10016C00F802EF91EF931092E0031092E1031092DA
:10017C00E2031092E3031092E4031092E503109251
:10018C00E6031092E703EFEF27FDE093E00326FD73
:10019C00E093E10325FDE093E20324FDE093E30308
:1001AC0023FDE093E40322FDE093E50321FDE093BE
:1001BC00E60320FDE093E703E7E0E093E803EF912B
:1001CC00EF931092D0041092D1041092D20410929A
:1001DC00D3041092D4041092D5041092D604109229
:1001EC00D704EFEF47FDE093D00446FDE093D10434
:1001FC0045FDE093D20444FDE093D30443FDE0932A
:10020C00D40442FDE093D50441FDE093D60440FDB7
:10021C00E093D704E7E0E093D804EF912FEF30E0C0
:10022C0021B924B92DB937B928B923E823BD23E363
:10023C002093800029E1209381002FEF31E030934F
:10024C0089002093880022EC31E030938B002093BE
:10025C008A0022E020936F0023E3209390002CE18E
:10026C002093910027E134E030939900209398007B
:10027C0023E134E030939B0020939A002FEF31E080
:10028C00309385002093840023E134E03093950073
:10029C002093940013BC789421E023BF8895FECF63
:1002AC0020919400309195002F3340E034070AF4EC
:1002BC0008C1233D42E0340708F003C1A091F020AF
:1002CC00B091F1200091F2200D9002B80D9002B87F
:1002DC000D9002B80D9002B80D9002B80D9002B8B6
:1002EC000D9002B80D9002B80D9002B80D9002B8A6
:1002FC000D9002B80D9002B80D9002B80D9002B896
:10030C000D9002B80D9002B80D9002B80D9002B885
:10031C000D9002B80D9002B80D9002B80D9002B875
:10032C000D9002B80D9002B80D9002B80D9002B865
:10033C000D9002B80D9002B80D9002B80D9002B855
:10034C000D9002B80D9002B80D9002B80D9002B845
:10035C000D9002B80D9002B80D9002B80D9002B835
:10036C000D9002B80D9002B80D9002B80D9002B825
:10037C000D9002B80D9002B80D9002B80D9002B815
:10038C000D9002B80D9002B80D9002B80D9002B805
:10039C000D9002B80D9002B80D9002B80D9002B8F5
:1003AC000D9002B80D9002B80D9002B80D9002B8E5
:1003BC000D9002B80D9002B80D9002B80D9002B8D5
:1003CC000D9002B80D9002B80D9002B80D9002B8C5
:1003DC000D9002B80D9002B80D9002B80D9002B8B5
:1003EC000D9002B80D9002B80D9002B80D9002B8A5
:1003FC000D9002B80D9002B80D9002B80D9002B895
:10040C000D9002B80D9002B80D9002B80D9002B884
:10041C000D9002B80D9002B80D9002B80D9002B874
:10042C000D9002B80D9002B80D9002B80D9002B864
:10043C000D9002B80D9002B80D9002B80D9002B854
:10044C000D9002B80D9002B80D9002B80D9002B844
:10045C000D9002B80D9002B80D9002B80D9002B834
:10046C000D9002B80D9002B80D9002B80D9002B824
:10047C000D9002B80D9002B80D9002B80D9002B814
:10048C000D9002B80D9002B80D9002B80D9002B804
:10049C000D9002B80D9002B80D9002B80D9002B8F4
:1004AC000D9002B80D9002B81092F32012B80A9574
:1004BC002AF4A093F020B093F12004E00093F220F2
:1004CC001EC02091F3202395213079F42093F32042
:1004DC0005B000E8002605B88091F4209091F52035
:1004EC0001968093F4209093F52025E02093F22040
:1004FC0020E032E03093F1202093F020B19A18954F
:00000001FF
