:020000020000FC
:1000000011241092420201E00093420241D000917B
:1000100042020030E1F502E0009342024BD0009131
:1000200042020030A1F503E00093420255D0009156
:100030004202003061F504E0009342025ED000917C
:100040004202003021F505E00093420267D00091A2
:1000500042020030E1F406E0009342027FD00091BA
:1000600042020030A1F407E00093420293D00091D5
:100070004202003061F408E000934202B5D00091E2
:100080004202003021F409E000934202C2D0FFCFC7
:100090000AEF1FEA01234FB70A3A59F4443149F4F1
:1000A00007E404784FB7043021F4403011F4109283
:1000B000420208950AEF1FEA012B4FB70F3F59F490
:1000C000443149F407E404684FB7073C21F4443154
:1000D00011F410924202089507E116E101274FB78B
:1000E000013051F4403041F400274FB7003021F483
:1000F000423011F410924202089507E100951FB7B3
:10010000083E59F4153149F40FEF00951FB7003040
:1001100021F4133011F41092420208957894E89477
:100120005894C8943894A894189488940FB70A3AAD
:10013000A1F401E000FB1FB716FF0FC001FB1FB7C2
:1001400016FD0BC0E89400F9003039F4689404F906
:10015000003119F4E894109242020895479A4698A3
:10016000459A4498439A4298419A4098479B11C0B7
:1001700046990FC0459B0DC044990BC0439B09C0D5
:10018000429907C0419B05C040990C94C900109248
:10019000420208950AE007FD26C006FD24C005FDC1
:1001A00022C004FD20C003FF1EC002FD1CC001FFD1
:1001B0001AC000FD18C008B9479915C0469913C068
:1001C000459911C044990FC0439B0DC042990BC083
:1001D000419B09C04099009142020AE21AE20113D0
:1001E00002C01092420208950AEA000F1FB70435B8
:1001F00079F4193B69F41FBF001F1FB7093A41F496
:100200001C3831F405EA02950A3511F410924202C5
:10021000089505E506951FB70A32B1F41939A1F41E
:100220001FBF07951FB7053979F41C3869F40FEF24
:1002300005951FB70F3F41F4153931F402E00295DF
:0A024000003211F4109242020895FA
:00000001FF
