:020000020000FC
:1000000011241092420201E0009342022DD000918F
:100010004202003041F502E00093420237D00091E5
:100020004202003001F503E00093420241D000910A
:1000300042020030C1F404E0009342024AD0009131
:100040004202003081F405E00093420253D0009157
:100050004202003041F406E00093420259D0009180
:100060004202003001F4FFCF0AEF1FEA01234FB72D
:100070000A3A59F4443149F407E404784FB704309C
:1000800021F4403011F41092420208950AEF1FEA61
:10009000012B4FB70F3F59F4443149F407E404688A
:1000A0004FB7073C21F4443111F4109242020895F5
:1000B00007E116E101274FB7013051F4403041F418
:1000C00000274FB7003021F4423011F41092420261
:1000D000089507E100951FB7083E59F4153149F41A
:1000E0000FEF00951FB7003021F4133011F4109278
:1000F000420208957894E8945894C8943894A89447
:10010000189488940FB70A3A11F410924202089595
:100110000AE007FD22C006FD20C005FD1EC004FD4B
:100120001CC003FF1AC002FD18C001FF16C000FD6D
:1001300014C008B9479911C046990FC045990DC020
:1001400044990BC0439B09C0429907C0419B05C01D
:0C01500040990091420210924202089572
:00000001FF
