:020000020000FC
:100000001124109242021124F1E0F0934202F8D33D
:10001000F0914202F030F9F4F2E0F09342020E94D3
:100020000010F0914202F030B1F4F3E0F09342029C
:10003000E5E1F0E10995F0914202F03061F4F4E07D
:10004000F0934202E1E0ECBFE0E0F0E51995F091B9
:080050004202F03001F4FFCF81
:10080000ADB7BEB72CEF31E22A173B0769F411965A
:100810001D910D91FD9028E030E040E0F2160307B5
:0A082000140711F41092420208952B
:10200000ADB7BEB72CEF31E22A173B0769F4119642
:102010001D910D91FD9021E130E040E0F2160307A3
:10202000140711F4109242020895ADB7BEB72CEF19
:1020300031E22A173B0769F411961D910D91FD902D
:102040002BE130E040E0F2160307140711F4109280
:0420500042020895AB
:020000022000DC
:10A00000ADB7BEB72CEF31E22A173B0769F41196C2
:10A010001D910D91FD9027E230E040E0F21603071C
:0AA02000140711F410924202089593
:00000001FF
