:020000020000FC
:100000001124109242021124F1E0F0934202F8D33D
:10001000F0914202F030E1F4F2E0F09342020E94EB
:100020000010F0914202F03099F4F3E0F0934202B4
:10003000E2E1F0E10995F0914202F03049F4F4E098
:10004000F09342020E942410F0914202F03001F439
:02005000FFCFE0
:10080000ADB7BEB72DEF31E22A173B0751F4119671
:100810001D910D9128E030E00217130711F410929A
:0408200042020895F3
:10200000ADB7BEB72DEF31E22A173B0751F4119659
:102010001D910D9121E130E00217130711F4109288
:1020200042020895ADB7BEB72DEF31E22A173B0744
:1020300051F411961D910D912BE130E00217130719
:1020400011F41092420208950AE20F9300E10F93F7
:0A20500008950895109242020895C9
:00000001FF
