:020000020000FC
:0A0000001124109242020C945400E7
:1000A0000C94520041E0189501E00093420215D0F3
:1000B00000914202003081F402E0009342022AD013
:1000C00000914202003041F403E00093420257D015
:1000D00000914202003001F4FFCFE0E0F0E1C8956A
:1000E000002D0A32B1F405910A3299F405910831D4
:1000F00081F4E1E0EBBFE0E0F0EAD895002D0831B3
:1001000041F40791083129F407910A3211F4109251
:1001100042020895E0E9F5E001E015E02AE23BE261
:10012000090107BFF8952CE23DE2090107BFE895F8
:10013000010C07BFE89517BFE89507B60022E9F75D
:10014000E0E9F5E007911791279137910A32B1F470
:100150001B32A1F42C3291F43D3281F47894E0E921
:10016000F5E005E82BE73AEE4427090107BFE895DB
:100170004423F1F3F8941124109242020895E0E927
:10018000F5E003E007BFE89507B60022E9F707911D
:100190001791279137910F3F41F41F3F31F42F3FC3
:0C01A00021F43F3F11F410924202089538
:1004000000000000000000000000000000000000EC
:1004100000000000000000000000000000000000DC
:1004200000000000000000000000000000000000CC
:1004300000000000000000000000000000000000BC
:1004400000000000000000000000000000000000AC
:10045000000000000000000000000000000000009C
:10046000000000000000000000000000000000008C
:10047000000000000000000000000000000000007C
:10048000000000000000000000000000000000006C
:10049000000000000000000000000000000000005C
:1004A000000000000000000000000000000000004C
:1004B000000000000000000000000000000000003C
:1004C000000000000000000000000000000000002C
:1004D000000000000000000000000000000000001C
:1004E000000000000000000000000000000000000C
:1004F00000000000000000000000000000000000FC
:1005000000000000000000000000000000000000EB
:1005100000000000000000000000000000000000DB
:1005200000000000000000000000000000000000CB
:1005300000000000000000000000000000000000BB
:1005400000000000000000000000000000000000AB
:10055000000000000000000000000000000000009B
:10056000000000000000000000000000000000008B
:10057000000000000000000000000000000000007B
:10058000000000000000000000000000000000006B
:040590002A2A2A2ABF
:021000002A18AC
:020000021000EC
:02A00000182A1C
:00000001FF
