:020000020000FC
:1000000011241092420201E0009342020DD00091AF
:100010004202003041F402E00093420222D00091FB
:100020004202003001F4FFCFEAE5F2E0C895002D6E
:100030000A32B1F405910A3299F40591083181F43C
:10004000E0E0EBBFECE5F2E0D895002D083141F49B
:100050000791083129F407910A3211F410924202F3
:100060000895E0E0EBBFE6E5F2E003E007BFE895C6
:1000700026D004910F3F11F52AE23BE2090101E08D
:1000800007BFF8951CD01394012C139407BFF89563
:1000900016D0112405E007BFE89511D0E6E5F2E09F
:1000A00005910A3259F405910B3241F405910C3255
:1000B00029F405910D3211F410924202089507B609
:1000C00000FCFDCF089500000000000000000000CB
:1000D0000000000000000000000000000000000020
:1000E0000000000000000000000000000000000010
:1000F0000000000000000000000000000000000000
:1001000000000000000000000000000000000000EF
:1001100000000000000000000000000000000000DF
:1001200000000000000000000000000000000000CF
:1001300000000000000000000000000000000000BF
:1001400000000000000000000000000000000000AF
:10015000000000000000000000000000000000009F
:10016000000000000000000000000000000000008F
:10017000000000000000000000000000000000007F
:10018000000000000000000000000000000000006F
:10019000000000000000000000000000000000005F
:1001A000000000000000000000000000000000004F
:1001B000000000000000000000000000000000003F
:1001C000000000000000000000000000000000002F
:1001D000000000000000000000000000000000001F
:1001E000000000000000000000000000000000000F
:1001F00000000000000000000000000000000000FF
:1002000000000000000000000000000000000000EE
:1002100000000000000000000000000000000000DE
:1002200000000000000000000000000000000000CE
:1002300000000000000000000000000000000000BE
:1002400000000000000000000000000000000000AE
:0E0250000000000000002A2A2A2A2A18182A74
:00000001FF
