:020000020000FC
:100000001124109242020BE211EC019F2BE630E228
:100010004FB70216130671F4403061F40FEF18EC7D
:10002000019F28E337EC4FB70216130619F441304D
:1000300009F404C0F1E0F093420266C003E815E75A
:1000400001024FB72FED36EC0216130671F4413062
:1000500061F405E915ED01024FB729EF31E1021610
:10006000130619F4403009F404C0F2E0F0934202A0
:100070004BC00FE818ED01034FB708EA10EA00166D
:10008000110671F4413061F401E718ED01034FB737
:1000900008E51FE50016110619F4403009F404C004
:1000A000F3E0F093420230C003EA1DED09034FB7BD
:1000B0002EE639E10216130619F4413009F404C0A2
:1000C000F4E0F093420220C005E81EEC81034FB734
:1000D0002CE030E30216130619F4403009F404C092
:1000E000F5E0F093420210C005E81CEC89034FB71D
:1000F00028EF3BE30216130619F4413009F404C05B
:0A010000F6E0F093420200C0FFCFCA
:00000001FF
