:020000020000FC
:1000000011241092420201E0009342020AE20DBF65
:100010001DB701130C94590002E0009342020AE25A
:100020000093FF011091FF01109342021F3F09F658
:1000300003E0009342020AE206BB16B31030C9F592
:1000400004E00093420202ED14E010938900009353
:10005000880020918800309189000217130749F524
:1000600010928900109288000093880010938900F4
:10007000209188003091890002171306D1F4009373
:1000800088001093890000938800209188003091A7
:1000900089000217130769F44AE2409399003091EE
:1000A0008900209188000217430719F41092420238
:0400B000FFCFFFCFB0
:00000001FF
