:020000020000FC
:1000000011241092420201E00093420225D0009197
:100010004202003001F502E00093420238D0009124
:1000200042020030C1F403E00093420246D0009146
:100030004202003081F404E0009342026BD0009150
:100040004202003041F405E00093420283D0009167
:100050004202003001F4FFCFA3E4B2E00AE20D93C4
:1000600003950D9303950C93C5E4D2E008810C32FF
:1000700069F40A910B3251F40A910A3239F4009171
:1000800043020A3219F4E3E4F2E01292089505E61D
:100090000093430210914302011771F40250009340
:1000A000440210914402011739F4E3E4F2E01191A3
:1000B000033611F410924202089501E011E022E0AB
:1000C00033E045E058E06DE075E1A0E0B0E0C0E16C
:1000D000D0E098E089918D939A95E1F7001611068A
:1000E00022063306440655066606770691F40EE1AD
:1000F0001CE828014016510661F40E3151F41C38F9
:1001000041F4102F0E3129F41E3119F411241092EC
:1001100042020895C3E4D2E004E60883039509830C
:1001200003950A831A811636A1F41981153689F4CC
:100130001881143671F410914302143651F4109161
:100140004402153631F410914502163611F410921E
:10015000420208950AE20F9315E61F93ADB7BEB7AA
:1001600011962D913D915F914F910317120761F404
:100170000417150749F44DB71F925DB71F90451B33
:0A018000413011F41092420208957C
:00000001FF
