:020000020000FC
:0A0000001124109242020C943C00FF
:100058000C9430000C9436000FB66395109146004E
:100068000FBE18950FB65395109146000FBE189500
:10007800112444275527F89401E00093420200E038
:100088000093440001E0009345001092460001E00F
:1000980000936E0078940091460043955330D8F34E
:1000A800F8941092450000914600053119F44A373A
:1000B80009F401C0FFCF4427552702E0009342020C
:1000C80000E00093440002E00093450010924600CF
:1000D80001E000936E0078940091460043955330F8
:1000E800D8F3F8941092450000914600023019F4B4
:1000F8004A3F09F401C0FFCF44275527662703E08C
:100108000093420200E00093350000E41CE325E080
:1001180032E041E0109246000093470010934800F7
:1001280020936E00309344004093450078940091EA
:10013800460043956530D8F3F89410924500009135
:100148004600053129F44C3219F410924202FFCFCF
:02015800FFCFD7
:00000001FF
