:020000020000FC
:10000000112410924202112401E00093420202EDF9
:1000100014E0109389000093880001E314ED10931D
:100020008B0000938A0020E731E02093800030931A
:1000300081002D992EC02E992CC080E797E1019761
:10004000F1F72D9B26C02E9924C080E197E20197FD
:10005000F1F72D9B1EC02E9B1CC088EE93E00197EC
:10006000F1F72D9916C02E9B14C080E197E20197FD
:10007000F1F72D990EC02E9B0CC0109281001092AA
:10008000800015B80FEF0093850000938400109254
:040090004202FFCF5A
:00000001FF
