:020000020000FC
:10000000112410924202112401E00093420200E800
:1000100004B900E810E120E731E0009347001093B5
:10002000480020934400309345002F990C942501FB
:10003000A5990C9425010FE10A95F1F72F990C94DD
:100040002501A59B0C9425010FE10A95F1F72F9B43
:100050000C942501A59B0C9425010FE10A95F1F75D
:100060002F9B0C942501A59B0C9425010FE10A956B
:10007000F1F72F990C942501A59B0C9425010FE114
:100080000A95F1F72F990C942501A59B0C94250155
:10009000109245001092440015B814BA08EC009371
:1000A00046001092460002E00093420200E222E481
:1000B00031E00093470020934400309345002F998E
:1000C0000C94250100E10A95F1F72F9B0C94250172
:1000D0000AE00A95F1F72F990C9425010AE00A9598
:1000E000F1F72F9B0C9425010AE00A95F1F72F995F
:1000F0000C9425010AE00A95F1F72F9B0C94250139
:100100000AE00A95F1F72F990C9425010AE00A9567
:10011000F1F72F9B0C94250110924500109244009A
:1001200015B814BA08EC009346001092460003E09C
:10013000009342020BE418E223E339E010924600F8
:1001400000934700109348002093440030934500EB
:100150000FE00A95F1F7A59B0C9425010AE00A959A
:10016000F1F7A5990C9425010AE00A95F1F7A599F4
:100170000C9425010AE00A95F1F7A59B0C94250142
:100180000AE00A95F1F7A5990C9425010AE00A9571
:10019000F1F7A59B0C9425011092450010924400A4
:1001A00015B814BA08EC009346001092460004E01B
:1001B0000093420200E412E321E239E0109246008B
:1001C000009347001093480020934400309345006B
:1001D0000EE10A95F1F7A59B0C9425010AE00A951A
:1001E000F1F7A59B0C9425010AE00A95F1F7A59B70
:1001F0000C9425010AE00A95F1F7A5990C942501C4
:100200000AE00A95F1F7A59B0C9425010AE00A95EE
:10021000F1F7A59B0C9425010AE00A95F1F7A59B3F
:100220000C9425010AE00A95F1F7A5990C94250193
:10023000109245001092440015B814BA08EC0093CF
:0C02400046001092460010924202FFCFD0
:00000001FF
