:020000020000FC
:10000000112410924202112401E00093420200E800
:1000100004B900E810E120E731E0009347001093B5
:10002000480020934400309345002F990C9485009C
:10003000A5990C9485000FE10A95F1F72F990C947E
:100040008500A59B0C9485000FE10A95F1F72F9B85
:100050000C948500A59B0C9485000FE10A95F1F79F
:100060002F9B0C948500A59B0C9485000FE10A95AD
:10007000F1F72F990C948500A59B0C9485000FE156
:100080000A95F1F72F990C948500A59B0C94850097
:1000900015B814BA02E00093420200E222E431E013
:1000A0000093470020934400309345002F990C940F
:1000B000850000E10A95F1F72F9B0C9485000AE07A
:1000C0000A95F1F72F990C9485000AE00A95F1F74B
:1000D0002F9B0C9485000AE00A95F1F72F990C9458
:1000E00085000AE00A95F1F72F9B0C9485000AE041
:1000F0000A95F1F72F990C9485000AE00A95F1F71B
:0C0100002F9B0C94850010924202FFCF50
:00000001FF
