:020000020000FC
:100000001124109242020DEF13E8010F2FB70038B0
:10001000B9F51338A9F5253399F508E418E0010F6F
:100020002FB7003569F5203259F50AE91DE0011BAB
:100030002FB70D3829F51D3019F5243309F503EFD5
:1000400018E7011B2FB70B37D9F41837C9F4283339
:10005000B9F40BE211EC019F2BE630E24FB7021628
:10006000130671F4403061F40FEF18EC019F28E3A0
:1000700037EC4FB70216130619F4413009F4FFCFDD
:08008000FFEFF0934202FBCFF9
:00000001FF
