:020000020000FC
:100000001124109242020DEF13E8010F2FB70038B0
:1000100069F4133859F4253349F408E418E0010F62
:100020002FB7003519F4203209F404C0F0E0F09342
:10003000420283C009E310E321EE30E1020F4FB723
:10004000131F5FB76AE171E4061799F4171789F473
:10005000413079F4503069F489E390E3CF964FB79B
:10006000A8E7B0E38A1729F49B0719F4403009F494
:1000700004C0F1E0F093420260C00AE91DE0011BF8
:100080002FB70D38A9F41D3099F4243389F403EF08
:1000900018E7011B2FB70B3759F4183749F42833E9
:1000A00039F40AE109562FB7013B11F4253104C098
:1000B000F2E0F093420241C009E310E32FEF33E096
:1000C000021B4FB7130B5FB70A3309F51C32F9F463
:1000D0004132E9F45032D9F401E314ED0F5F4FB728
:1000E00013405FB7023399F4103D89F4413279F43B
:1000F000543169F489E69AE5CF974FB7AAE2BAE599
:100100008A1729F49B1719F4403009F404C0F3E06E
:10011000F093420212C00DE201954FB7033D51F436
:10012000453341F400E801954FB7003819F44D30DC
:0C01300009F403C0F4E0F0934202FFCF9A
:00000001FF
