:020000020000FC
:1000000000008901020202030A038A038203020735
:100010000217020B021B020F021F02230227022BF0
:100020000031065007400F700F60AA87AA85009321
:10003000140009932193AF93009114000991219129
:10004000AF91A491A791009501950295039505950F
:1000500006950795B894089518958895C895D895EC
:10006000E89509940995199419953A940C942C01E2
:100070000E94C800029602970798079A069B059966
:10008000899F20B021B820C01FD020F2A2F9A3FB85
:10009000A2FDA1FFE0E0F2E005E315E6010F019308
:00000001FF
